:100000000C9434000C943E000C943E000C943E0082
:100010000C943E000C943E000C943E000C943E0068
:100020000C943E000C943E000C943E000C943E0058
:100030000C943E000C943E000C943E000C943E0048
:100040000C943E000C943E000C943E000C943E0038
:100050000C943E000C943E000C943E000C943E0028
:100060000C943E000C943E0011241FBECFEFD8E04C
:10007000DEBFCDBF0E9440000C9488000C940000AD
:1000800081E084B980E88BB980E090E04F99FCCFA3
:100090002FEF30E742E0215030404040E1F700C010
:1000A00000004F99F3CF892B81F581E090E04F99C3
:1000B00010C0892B71F45FEF60E782E0515060401F
:1000C0008040E1F700C0000020E030E081E090E0F7
:1000D00004C080E090E021E030E0289A4FEF59E63C
:1000E00068E1415050406040E1F700C000002898AE
:1000F0004FEF59E668E1415050406040E1F700C0E1
:1001000000002130310599F2C1CF81E090E0BECFEF
:04011000F894FFCF91
:00000001FF
