S011000070726F6A656B7476312E737265636D
S11300000C945A000C9477000C9477000C94CF0055
S11300100C9477000C9477000C9477000C94770080
S11300200C9477000C9477000C9477000C948E0059
S11300300C9477000C9477000C9477000C94770060
S11300400C9477000C9477000C9477000C94770050
S11300500C9477000C9477000C9477000C94770040
S11300600C9477000C9477000C9477000C94770030
S11300700C9477000C9477000C9477000C94770020
S11300800C9477000C9477000C9477000C94770010
S11300900C9477000C9477000C9477000C94770000
S11300A00C9477000C9477000C9477000C947700F0
S11300B00C94770011241FBECFEFD8E0DEBFCDBF74
S11300C011E0A0E0B1E0EAE7F4E002C005900D928F
S11300D0AA30B107D9F721E0AAE0B1E001C01D922E
S11300E0A931B207E1F70E94BA010C943B020C94C7
S11300F00000E1E8F0E08081886080838081856091
S11301008083EFE6F0E080818260808388E09DE375
S11301109093890080938800789408951F920F9299
S11301200FB60F9211248F939F9380911701909192
S11301301801019690931801809317019F918F9154
S11301400F900FBE0F901F90189584B1807F84B9D3
S113015085B18F6085B984B18F7784B985B18068A2
S113016085B9E8E6F0E0808181608083EBE6F0E029
S113017080818F688083089540E050E048175907D4
S113018068F420E030E0283E63E0360720F4000005
S11301902F5F3F4FF8CF4F5F5F4FF0CF08951F920F
S11301A00F920FB60F9211242F933F934F935F93A7
S11301B06F937F938F939F93AF93BF93EF93FF932B
S11301C082E390E00E94BC00189903C081E0809310
S11301D00C01199903C081E080930A011A9903C0A4
S11301E081E080930B011B9927C080911601811136
S11301F012C080911401909115018C33910530F453
S11302000196909315018093140116C01092150164
S11302101092140111C080911001909111018C333E
S1130220910530F40196909311018093100104C05C
S113023010921101109210011F9903C081E0809364
S11302400D01FF91EF91BF91AF919F918F917F919C
S11302506F915F914F913F912F910F900FBE0F902F
S11302601F90189521E030E002C0220F331F8A95B9
S1130270E2F7209528B9E62FF0E0E050FF4F8081A7
S11302808BB982E090E00E94BC0008950F931F9305
S1130290CF93DF9300D000D0CDB7DEB78C01FB0144
S11302A09C01ADECBCEC0E942C02AC015695479528
S11302B056954795569547954983CA01880F991FC6
S11302C0440F551F440F551F440F551F480F591F06
S11302D0041B150B0A839F010E942C02AC01569546
S11302E0479556954795569547954B83CA01880F70
S11302F0991F440F551F440F551F440F551F480F96
S1130300591FE41BF50BEC8310E0143060F4E1E0BA
S1130310F0E0EC0FFD1FE10FF11D6081812F0E94C1
S113032032011F5FF2CF0F900F900F900F90DF916B
S1130330CF911F910F910895FB0120813181232BCF
S113034099F4DC012D913C911197232B91F02D917F
S11303503C9111972150310911963C932E938BE3D4
S113036090E09183808308958081918101979183A6
S1130370808308958FEF8AB98FE087B90E9479004E
S11303800E94A500C0E08091170190911801892B6B
S1130390B9F01092180110921701CC2389F08091C2
S11303A01601811107C062E171E084E191E00E94CD
S11303B09C0106C06EE071E080E191E00E949C0126
S11303C080910C01882399F010920C011092150170
S11303D01092140110921301109212011092110143
S11303E01092100110920F0110920E01C0E0809142
S11303F00B01882319F010920B01C1E080910A01CE
S1130400882319F010920A01C0E080910D0188231D
S113041049F010920D019091160181E0911180E054
S1130420809316018091160181110BC06091120115
S11304307091130180911401909115010E9446015D
S1130440A2CF60910E0170910F01809110019091E3
S113045011010E94460197CFA29FB001B39FC00132
S1130460A39F700D811D1124911DB29F700D811DDC
S10D04701124911D0895F894FFCFA4
S10D047AC0F9A4B0999282F88090B2
S9030000FC
