:100000000C9434000C943E000C943E000C943E0082
:100010000C943E000C943E000C943E000C943E0068
:100020000C943E000C943E000C943E000C943E0058
:100030000C943E000C943E000C943E000C943E0048
:100040000C943E000C943E000C943E000C943E0038
:100050000C943E000C943E000C943E000C943E0028
:100060000C943E000C943E0011241FBECFEFD8E04C
:10007000DEBFCDBF0E9440000C94A7000C9400008E
:100080008FE384B980E88BB980E090E020E030E035
:100090004F99FECF4FEF50E762E041505040604033
:1000A000E1F700C000004F99F3CF6FEF40E752E057
:1000B000615040405040E1F700C00000211531057B
:1000C00069F5009709F040C02D9A4FEF59E668E1B5
:1000D000415050406040E1F700C000002C9A4FEFC3
:1000E00059E668E1415050406040E1F700C000002F
:1000F0002B9A4FEF59E668E1415050406040E1F7DC
:1001000000C000002A9A4FEF59E668E14150504084
:100110006040E1F700C00000299A16C0009729F45A
:1001200015B8289A81E090E00FC08130910561F404
:1001300028988FEF90E742E0815090404040E1F7EF
:1001400000C0000080E090E051E02527A1CFF894A6
:02015000FFCFDF
:00000001FF
